S0160000526F626F63617250726F6A6563742E737265636F
S11300006DC00000B6C00000B4C00000B2C0000063
S1130010B0C00000AEC00000ACC00000AAC0000028
S1130020A8C00000A6C00000A4C000003DC200009B
S1130030A0C000006DC100009CC000009AC0000078
S11300404AC1000096C0000094C0000092C00000A5
S113005090C000008EC000008CC000008AC0000068
S1130060A0C0000086C0000084C0000082C0000060
S113007080C000007EC000007CC000007AC0000088
S113008078C000000C947D0B0C94310C1E0A350AC8
S1130090AD0AAD0AAD0AAD0AAD0AAD0AAD0AAD0AA4
S11300A0AD0AAD0AAD0AAD0AAD0AAD0AAD0AAD0A94
S11300B0AD0A460A4C0A670A7C0A930A9E0A08019A
S11300C0060C00000601CB018602FD0451072C0931
S11300D0CD09B30AC50B7D0CDA0CCB0D11241FBE60
S11300E0CFEFD0E4DEBFCDBF099A0A9A0F9A229AC5
S11300F0539A549AECECF0E01182108283EC8093D2
S1130100CA0088E18093C9001182108260E080E413
S11301100E94340B60E080E60E94340B11E0A0E002
S1130120B1E0E2E1FCE100E00BBF02C007900D92F8
S1130130AA3DB107D9F722E0AAEDB1E001C01D92B2
S1130140AE3FB207E1F710E0CCEDD0E000E006C02E
S113015022970109FE010BBF0E94EF0DC43CD10799
S113016080E00807A9F7119A78940E94B20A0C94C7
S1130170070E46CF28E230E0FC0135832483EAE70A
S1130180F0E089E8808380E680937C00808180644D
S1130190808308952091790030E0FC01348723871F
S11301A008951F920F920FB60F9211240BB60F925F
S11301B02F933F934F935F936F937F938F939F936B
S11301C0AF93BF93EF93FF9380EE91E00E94990D5C
S11301D0FF91EF91BF91AF919F918F917F916F911B
S11301E05F914F913F912F910F900BBE0F900FBED7
S11301F00F901F901895E82FF0E0EE0FFF1FE652C6
S1130200FE4F83859485959587950895CF93DF93C5
S11302108CED91E00E94F10CCAEDD1E08CE091E00C
S11302209983888382EE91E00E94F10C82E191E04F
S1130230998388838AE191E09093E1018093E001BE
S11302401092F6011092F50188E290E09093DF019C
S11302508093DE01CE010E945A0CDF91CF91089564
S1130260069798CFFC0188E290E09583848326B5B5
S113027030E03387228780918400909185009587B0
S1130280848766817781AAEFA69FA001A79F500D5E
S11302901124240F351F3787268760857185A69F13
S11302A0A001A79F500D1124840F951F918B808B63
S11302B042895389B901641B750B778B668B44891A
S11302C05589BC01641B750B718F608F338B228B36
S11302D0958B848B08951F920F920FB60F92112461
S11302E00BB60F928F939F93EF93FF93EDEFF1E093
S11302F080819181019691838083FF91EF919F91F9
S11303008F910F900BBE0F900FBE0F901F901895FA
S11303101F920F920FB60F9211240BB60F928F9368
S11303209F93EF93FF93EFEFF1E08081918101962A
S113033091838083FF91EF919F918F910F900BBEDA
S11303400F900FBE0F901F9018951092840016BC4A
S113035010920802109207021092060210920502EF
S1130360109200021092FF011092FE011092FD0102
S113037010920402109203021092020210920102DF
S113038008958091050290910602089580910702D4
S113039090910802089589EF91E00E94F10C80E2A7
S11303A091E09093F8018093F70188E290E09093B4
S11303B0FC018093FB01109204021092030210923C
S11303C0020210920102109200021092FF01109298
S11303D0FE011092FD011092080210920702109281
S11303E006021092050210920C0210920B02109257
S11303F00A02109209021092100210920F02109237
S11304000E0210920D022098289A16BC82E084BD38
S1130410A99A97E095BD9AEF97BD80936E002198B5
S1130420299A10928400B19A109280002FE02093B0
S11304308100109282009093880080936F0087EF70
S113044091E00C945A0C08950F931F93CF93DF936C
S1130450EC0168E28CEC0E941A0B0E94E30A0E94F1
S11304609F0C8887992708976AD78C01C3D246E0E6
S1130470BC01C80133D68E819801280F311D332366
S113048014F420E030E0822F2C836F8170E0601B35
S1130490710B12F460E070E06D830E94D50CDF9163
S11304A0CF911F910F9108951F920F920FB60F9243
S11304B011240BB60F922F933F934F935F936F9337
S11304C07F938F939F93AF93BF93EF93FF9381E1B8
S11304D092E00E94990DFF91EF91BF91AF919F918E
S11304E08F917F916F915F914F913F912F910F90D9
S11304F00BBE0F900FBE0F901F901895809317029C
S113050060931802089580911902089583E192E09E
S11305100E94F10C86E291E0909312028093110202
S113052088E78093170280931802E0E7F0E0908157
S11305309160908398E090931902809315028093C0
S113054016020895CF93DF93EC01662371F08E8138
S1130550811104C087EA0E94C20C03C080E00E949B
S1130560C20C9E8181E089278E83DF91CF9108950B
S1130570CF93DF93EC01662309F447C08A85811188
S113058044C089858330F9F028F4813041F0823009
S113059091F02CC0843009F1853021F127C080E02E
S11305A02ADEFE01E95AFF4F959587959595879523
S11305B0918380831BC080E01EDEFE01E75AFF4F5B
S11305C09183808313C080E016DEFE01E55AFF4F5D
S11305D0880F991F9183808309C080E00CDE880F07
S11305E08D8704C080E007DE880F8E87FE01E55A00
S11305F0FF4F4081518132976081718132978081B0
S11306009181A2D66E858D8579DFDF91CF91089592
S1130610662341F0FC0121852F5F263009F420E098
S1130620FC0121870895662351F0FC0121852111E5
S113063003C025E0218708952150FC0121870895F6
S1130640FF920F931F93CF93DF93EC018A8581115F
S1130650E8C08985823009F43FC028F4882361F01A
S11306608130C1F09AC0843009F47AC008F456C0CD
S1130670853009F484C091C080E5898B89E48E8B30
S113068084E48B8F80E2FE01E45BFF4F8083349629
S1130690808383C08F81882371F080E5898B89E40E
S11306A08E8B84E48B8F80E2FE01E45BFF4F8083BA
S11306B0349680830CC080E2898B99E49E8B94E409
S11306C09B8FFE01E45BFF4F8083349680839F8180
S11306D081E089278F8361C08F81882371F080E551
S11306E0898B89E48E8B84E48B8F80E2FE01E45B4A
S11306F0FF4F8083349680830CC080E5898B80E231
S11307008E8B94E49B8FFE01E45BFF4F80833496D1
S113071080839F8181E089278F833FC08F818823D5
S113072071F080E5898B89E48E8B84E48B8F80E281
S1130730FE01E45BFF4F8083349680830CC080E528
S1130740898B89E48E8B80E28B8FFE01E45BFF4F03
S11307508083349680839F8181E089278F831DC0A5
S113076080E5898B89E48E8B84E48B8F8CE3FE0196
S1130770E45BFF4F808380E2349680830EC080E583
S1130780898B89E48E8B84E48B8F80E2FE01E45BA9
S1130790FF4F80838CE33496808342E0BE01615F27
S11307A07F4FFE01E95AFF4F8081918197D410E277
S11307B01A8B43E0BE016D5E7F4FFE01E75AFF4F87
S11307C0808191818BD41F8B43E0BE01685E7F4F93
S11307D0FE01E55AFF4F8081918180D48985813063
S11307E061F480E008DD43E0BE01645E7F4F9595CF
S11307F087959595879572D426C0823041F480E020
S1130800FADC43E0BE01645E7F4F68D41CC080E024
S1130810F2DC43E0BE01645E7F4F880F991F5ED413
S113082012C0898542E0BE01615F7F4F90E056D4DB
S11308304EE0BE016F5E7F4F8B859C854FD48EE466
S11308408F8B8AE3888F5FDEBE016F5C7F4F42E04F
S113085090E044D410E21BAB0F2EF5E4FF2EF02DF4
S1130860FCAA0AE30DAB8FD5BE016A5C7F4F42E060
S113087035D418AF81E489AFFAAE0BAF89D5BE0188
S1130880645C7F4F45E02AD4FE01ED5AFF4F60813E
S1130890718180E0DED36EE18CEECCD694D6BE01BD
S11308A0605E7F4F48E090E093D418A719A769DDF4
S11308B0BE01675D7F4F43E011D40CA767DDBE0125
S11308C0635D7F4F43E00AD4FE01E85BFF4F108372
S11308D0BE01675B7F4F8D8543E090E0FFD3BE018F
S11308E0635B7F4F8E8543E090E0F8D3CB5ADF4FB4
S11308F06881798180E4ADD3DF91CF911F910F910D
S1130900FF9008950F931F93CF93DF93EC0188E238
S113091090E09D838C8361E08CE88CD6082F188549
S113092018278A85813099F480E065DCAC01485E43
S11309305F4F88EC849F9001859F300D11243C8784
S11309402B876985643018F470E0C901FFD6CE01A5
S113095077DE112309F449C0088716FF04C0602F0D
S11309606074CE0105DE10FF04C0602F6170CE01FB
S1130970E9DD12FF04C0602F6470CE0149DE11FF6F
S113098004C0602F6270CE014EDE13FF12C003FF5D
S113099008C0FE01ED5AFF4FCE010F96918380836C
S11309A008C0FE01ED5AFF4F9E012F5C3F4F31837B
S11309B0208314FF12C004FF08C0FE01EB5AFF4F4E
S11309C0CE0180969183808308C0FE01EB5AFF4FCD
S11309D09E012E5B3F4F31832083112334F4002387
S11309E014F41A8602C081E08A87DF91CF911F91A7
S11309F00F9108958CE592E008958CE192E0F1D78F
S1130A008CE291E090931B0280931A0288E290E0BA
S1130A1090931F0280931E028FE090E090937202E5
S1130A208093710280E590E0909374028093730246
S1130A308FE790E0909376028093750288E7809325
S1130A4028028093270289E292E090936E028093B9
S1130A506D028AE392E09093700280936F0261E0EA
S1130A608CE8E8D58F6080932202109220021092C5
S1130A702102109224021092230280E197E29093C3
S1130A802602809325028AE192E014C7089508950E
S1130A900F931F93CF93DF93EC0181E090E09D834C
S1130AA08C834F81588569857A854C3B82E0580751
S1130AB06105710509F440C10CF04DC0423381E079
S1130AC058076105710509F413C10CF54A3C510539
S1130AD06105710509F4A5C06CF4473C5105610535
S1130AE0710509F488C0483C51056105710509F494
S1130AF091C0BCC14C3C51056105710509F4DBC0D2
S1130B004A3F51056105710509F4ECC0AFC1433199
S1130B1082E058076105710509F4FCC074F44A3693
S1130B2081E058076105710509F4E8C04B3D514067
S1130B306105710509F4E8C099C14B3482E0580796
S1130B406105710509F4ECC0433852406105710533
S1130B5009F4ECC08BC14E3784E058076105710578
S1130B6009F40EC124F5453D83E05807610571057C
S1130B7009F4F4C074F44C3283E05807610571053C
S1130B8009F4E0C04D3953406105710509F4E0C032
S1130B906DC14D3084E058076105710509F4E4C066
S1130BA0453454406105710509F4E4C05FC1443E15
S1130BB084E058076105710509F404C174F4403BED
S1130BC084E058076105710509F4E5C0423E5440CC
S1130BD06105710509F4EFC049C1463E84E0580738
S1130BE06105710509F435C144315540610571054C
S1130BF009F432C13BC166E486E4D7D66EE18CEEDB
S1130C0019D5E1D48F3309F431C16EE18CEE12D5DC
S1130C10DAD42CC19ADB66E486E4C7D689EAB2D674
S1130C2025C1AFDB9C878B87B1DB9E878D872B85A6
S1130C303C8526313105C4F44F81588569857A8510
S1130C4047974CF441505109610971094F83588702
S1130C5069877A870CC042505109610971094F8331
S1130C60588769877A8703C066E480E09ED68D85BD
S1130C709E854697E4F44F81588569857A858A0173
S1130C809B0101501109210931090F831887298714
S1130C903A878B859C8547970CF4E8C042505109EC
S1130CA0610971094F83588769877A87DFC060E0DB
S1130CB086E47BD6DBC080E065D662E070E088EC39
S1130CC092E344D561E070E086EB95E33FD560E0C4
S1130CD070E08EE593E33AD563E070E088EC92E34C
S1130CE035D5C4C062E070E088EC92E32FD5BEC075
S1130CF062E070E085E493E329D5B8C062E070E077
S1130D0082EC93E323D5B2C062E070E08CEB94E311
S1130D101DD5ACC062E070E089E395E317D5A6C0A9
S1130D2062E070E086EB95E311D5A0C062E070E06C
S1130D3083E396E30BD59AC062E070E080EB96E320
S1130D4005D594C062E070E08AEA97E3FFD48EC0D0
S1130D5062E070E084EA98E3F9D488C062E070E06D
S1130D6081E299E3F3D482C062E070E08EE999E312
S1130D70EDD47CC062E070E08BE19AE3E7D476C006
S1130D8063E070E080EF95E5E1D462E070E088E92B
S1130D909AE3DCD46BC060E070E080E29CE1D6D4DE
S1130DA061E070E084EF9CE4D1D462E070E086ED11
S1130DB098E3CCD45BC0C9DA66E486E4F6D58AEA63
S1130DC0E1D554C0DEDA9C878B874697DCF44F81EB
S1130DD0588569857A858A019B0101501109210989
S1130DE031090F83188729873A878D859E85479710
S1130DF064F042505109610971094F83588769872A
S1130E007A8703C060E580E0D0D5C0DA9E878D87FD
S1130E104697DCF44F81588569857A858A019B0160
S1130E2001501109210931090F83188729873A874D
S1130E308B859C854797D4F042505109610971090B
S1130E404F83588769877A8711C060E080E5ADD504
S1130E500DC080E097D50AC087EA94D560E580E5A7
S1130E60A4D5E0E7F0E08081816080838E818823CF
S1130E7061F04F81588569857A854F5F5F4F6F4F69
S1130E807F4F4F83588769877A87DF91CF911F916E
S1130E900F91089521E0892B09F420E020937D022D
S1130EA0089589E792E09DD582E391E090937802DA
S1130EB08093770210927E0210927F021092800239
S1130EC01092810210927D02109285021092840287
S1130ED0109283021092820281E090E090937C024F
S1130EE080937B0287E792E0E5C40895CF93DF9374
S1130EF0EC018B85811102C01A8625C080E084D361
S1130F008823F4F06C85623030F060E08B856ED31A
S1130F1081E08C8702C08B8569D38D85813041F453
S1130F20E889F989CF010196998B888BE08107C004
S1130F30E889F989CF010196998B888BE491EB8735
S1130F40CE01069623D6DF91CF910895CF93DF93F8
S1130F50EC018A85873051F482E08A8782E090E050
S1130F609D838C8360E080E341D343C0CE01A9D448
S1130F7060E080E330D388E71DD360E080E32BD3C7
S1130F8082E318D360E080E226D382E313D360E0E7
S1130F9088E22CD382E30ED360E080E427D382E39B
S1130FA009D361E085EA22D382E304D360E080E4DC
S1130FB01DD382E3FFD281E027D391E0853A09F47F
S1130FC090E0992311F09A8714C082E08A878EEF0B
S1130FD08D878EEB90E0998B888B1C86EE85FF8540
S1130FE0CF0101969F878E87E491EB87CE01069609
S1130FF0CDD5DF91CF910895FC01478185819681FC
S1131000248130919802311121C032E0309398024A
S113101040939B0290939F0280939E02822F80951F
S113102080939A02823010F020680AC0ACE9B2E0E2
S1131030ED91FC911197CF0101968D939C9324918E
S11310402093990284E992E0A1C50895CF019EC539
S1131050089590919802911122C092E09093980281
S113106091E090939B0270939F0260939E02982F4D
S1131070909590939A02923010F080680AC0ACE97F
S1131080B2E0ED91FC911197CF0101968D939C9361
S113109084918093990284E992E078C508958093BD
S11310A08A0270938C0260938B0281E080938D029C
S11310B086E892E06BC50895FC0120813181C90165
S11310C06AE070E073D57183608346EF4603C00124
S11310D0479F900D1124820F931F0895BF92CF92C2
S11310E0DF92EF92FF920F931F93CF93DF9300D081
S11310F0CDB7DEB79A8389836B01992344F4919524
S1131100819591099A838983BB24B39401C0B12C3E
S1131110042F10E0780181E0E81AF108EC0CFD1CC2
S1131120CE010196C9DF805DF70180830250110969
S1131130112394F089819A81892B29F0CE0101969B
S1131140BBDF805D01C080E2F1E0EF1AF108F70136
S113115080830150110970F7BB20C9F0F60180812A
S1131160803259F014C0181619068CF42C0D3D1D4C
S1131170F90131978DE280830AC0F601319680E04F
S113118090E001969C0141914032D9F3ECCF8981E2
S11311909A81892B19F08AE2F60180830F900F90CF
S11311A0DF91CF911F910F91FF90EF90DF90CF903F
S11311B0BF900895FC0120813181A901569547957E
S11311C051834083440F551FC901841B950B089517
S11311D0CF92DF92EF92FF920F931F93CF93DF93FF
S11311E000D0CDB7DEB79A8389836B01042F10E05A
S11311F0780181E0E81AF108E60EF71ECE010196A7
S1131200D9DF805DF701808302501109112394F026
S113121089819A81892B29F0CE010196CBDF805DEB
S113122001C080E3F1E0EF1AF108F7018083015077
S1131230110970F789819A81892B19F08AE2F601E4
S113124080830F900F90DF91CF911F910F91FF90AA
S1131250EF90DF90CF900895CF93DF9380E992E0F1
S1131260C0D3CEE8D2E08CE091E09983888386E90C
S113127092E0B7D388E391E09983888380E491E096
S1131280909395028093940287E08093980287E07C
S113129090E09093930280939202CE010BD388E85E
S11312A092E09FD386E491E0909387028093860234
S11312B0DF91CF910895069719CECF93DF93FC0168
S11312C086819781EB01C81BD90B778366832085C0
S11312D03185260F371F31872087828593858217B2
S11312E0930714F4918780879195819591092085BE
S11312F031852817390714F491878087808191817B
S1131300689F9001699F300D789F300D112480856E
S11313109185628173814AD4260F371F4481558198
S1131320C49FC001C59F900DD49F900D1124820FBE
S1131330931F919581959109DF91CF910895BC01F7
S11313408CEA92E0BACF08959093AD028093AC02F8
S11313507093AF026093AE025093B1024093B00217
S113136022E3269FC001279F900D11249093B7027A
S11313708093B6021092B5021092B4021092B30296
S11313801092B20208958091B2029091B30208952E
S11313908091B4029091B502089581E090E0909319
S11313A0B9028093B8029093BB028093BA029093DF
S11313B0BD028093BC0222E330E03093C302209349
S11313C0C2024FE050E05093AD024093AC0240E5BE
S11313D050E05093AF024093AE024AE550E0509380
S11313E0B1024093B00240EA5FE05093B7024093E9
S11313F0B60246E050E05093A1024093A0029093BD
S1131400A3028093A2025093A5024093A4023093B6
S1131410AB022093AA020895CF93DF93EC0181E0FD
S113142090E09D838C838F81482F50E04931510592
S113143008F093C0FA01EA5BFF4FCBC36EE18CEE78
S1131440F9D0C1D08E838F7B8F3309F088C0E0E759
S1131450F0E080818E7F808380E094D281E090E010
S113146019DD8F818F5F8F837AC068E28CECE2D0C4
S1131470AAD08E838B7F883F09F071C080E082D22E
S11314800E94A5018F818F5F8F8369C087EA7AD21A
S11314908F818F5F8F8363C00E94C10188878B35E2
S11314A008F45DC0E0E7F0E080818E7F808366E42D
S11314B080E07BD28FE266D260E070E088E89CE254
S11314C045D10E94A5018F818F5F8F8348C00E9400
S11314D0C60180970CF443C00E94A501E0E7F0E048
S11314E080818160808366E486E45FD287EA4AD2A1
S11314F08F818F5F8F8333C00E94C1018B3591052B
S113150074F10E94C601853691054CF10E94A50133
S113151080E038D2E0E7F0E080818E7F80838F81A5
S11315208F5F8F831CC00E94A50166E486E43DD2D0
S11315308FE828D28F818F5F8F8311C00E94C101F1
S113154084976CF080E01ED263E070E080E09BE45E
S1131550FDD08F818F5F8F8302C08F5F8F83DF9178
S1131560CF910895FFCF86EC92E03BD28CE491E0DA
S11315709093C5028093C4021092CB021092CA02C7
S113158081E090E09093C9028093C80284EC92E0D9
S113159091C10895E8ECF0E0908195FFFDCF809330
S11315A0CE00E8ECF0E080818823ECF78091CE0057
S11315B008950895CF93882321F0C82FFADFC150EE
S11315C0E9F7CF910895282F022E2EEF0694221FBB
S11315D0E8F3822F08952A989FEF97B9660F660F54
S11315E0862B88B9179AE5DF17980895CF93DF9370
S11315F0C82FD62F807FEFDF6D2F8C2F8295807FB1
S1131600EADFDF91CF910895CF932A989FE097B9AD
S11316108260880F880F88B9179ACBDF1798C6B1F4
S1131620179AC7DF179886B182958F70C07F8C2B6D
S1131630CF910895CF93DF93CAECD0E098819E7F39
S113164098832A989FEF97B988B92A9A862FB2DF90
S11316508881816088832A9888B1837F88B980E0F3
S113166099DFDF91CF9108952A989FEF97B988B9B0
S11316702A9A862F8FDF2A980895CF93C091CF029C
S1131680CF718770A0DF682F6C2B6093CF0280E44A
S1131690EBDFCF91089587786091CE026877682B4D
S11316A06093CE0280E6E0CF08958091D4028F5FEC
S11316B087708093D402E1DFE091D402F0E0EE0F72
S11316C0FF1FEB52FD4F80819181009751F0909361
S11316D09B0080939A00E0E9F0E08081806280833F
S11316E0089582EC98E390939B0080939A00E0E93C
S11316F0F0E080818F7D808308951F920F920FB652
S11317000F9211240BB60F922F933F934F935F9335
S11317106F937F938F939F93AF93BF93EF93FF93B5
S113172080ED92E006D2FF91EF91BF91AF919F912E
S11317308F917F916F915F914F913F912F910F9076
S11317400BBE0F900FBE0F901F901895FB01E77012
S1131750FF27893128E6920748F4813C22E1920769
S113176040F4892B49F020EC82E108C028E188E6A6
S113177005C0282F892F02C020E080E0EE0FFF1F54
S1131780EB52FD4F20838183089582ED92E029D1AD
S113179082E591E09093D1028093D002279A82EC63
S11317A098E390939B0080939A00E1E7F0E08081B6
S11317B0846080831092D8021092D7021092D602CD
S11317C01092D5021092D4021092E0021092DF021D
S11317D01092DA021092D9021092DC021092DB020B
S11317E01092DE021092DD021092E4021092E302E3
S11317F01092E2021092E1020895CF93DF93EC017C
S1131800688579856115710519F06E5F7F4F02C097
S113181060E070E0CE010496F1D00097E9F09C01FD
S1131820225031093987288721153105B9F0F9018A
S1131830248135812150310935832483232B49F4B4
S113184088859985DC01ED91FC910190F081E02D72
S11318500995CE019BD102C019861886DF91CF91DC
S113186008951F920F920FB60F9211240BB60F9288
S11318702F933F934F935F936F937F938F939F9394
S1131880AF93BF93EF93FF9385EE92E052D1FF9114
S1131890EF91BF91AF919F918F917F916F915F91E4
S11318A04F913F912F910F900BBE0F900FBE0F9051
S11318B01F901895BC016E5F7F4F89EE92E0BCC00B
S11318C00895CF93DF93EC01BC016E5F7F4F89EEE7
S11318D092E0DBD0009771F00297009759F02091C5
S11318E0ED023091EE02C217D30721F49093EE0279
S11318F08093ED02DF91CF91089587EE92E071D04D
S113190088E591E09093E6028093E50289EE92E007
S11319106CD01092EE021092ED0283E0809390005E
S113192089E18093910080E094EB909399008093F7
S11319309800E1E7F0E0808181608083089581115F
S113194005C080910601909107010895E82FF0E009
S1131950F595E795E65AFE4F208180FF0AC030E0F6
S1131960359527953595279535952795359527955B
S113197002C02F7030E03093070120930601822FBC
S1131980932F0895CF93C82F811106C083E08093CD
S1131990B00080E880DE07C0837084687CDEC07F8E
S11319A0C360C093B000CF9108958093B300609357
S11319B0B4000895579A569AE0EBF0E083E08083F0
S11319C097E09093B100A6EBB0E09C919F7D9C932F
S11319D0808380E860DE88E78093B4008093B3005E
S11319E00895FC01918380830895CF93DF93EC01E4
S11319F0F8DFDB83CA83DF91CF9108956115710508
S1131A0009F4BC01FB01208131812817390719F43D
S1131A1080E090E00895822F932F0895FC01808147
S1131A209181E817F90711F473836283DB018D93C5
S1131A309C93718360830895DC011296ED91FC916F
S1131A4013977183608313967C936E931297FB01B3
S1131A50918380830895DC01ED91FC9111978E1799
S1131A609F0779F08081918111969C938E938A17B8
S1131A709B0721F413969C938E931297F183E08332
S1131A8002C0E0E0F0E0CF010895CF93DF93AC0112
S1131A90FC0117C02617370799F4DF01EC012A81EE
S1131AA03B812617370711F4FB83EA83EB01888116
S1131AB099818D939C93798368838E2F9F2F08C07F
S1131AC0F901208131814217530721F780E090E02A
S1131AD0DF91CF9108950F931F93CF93DF93EC0180
S1131AE08B0183DF1D830C831E82DF91CF911F91B5
S1131AF00F910895FC012681222331F06E5F7F4F00
S1131B0087EF92E08BCF08956E5F7F4F95CF089556
S1131B10CF93DF93EC0181E08E83CE019CDF0097AD
S1131B2011F0029702C080E090E01E82DF91CF9115
S1131B3008950F931F93CF93DF93BC0180EF92E03E
S1131B40D9DF8091EF0281111CC081E08093EF0204
S1131B507894C0EFD2E08E01CE01DADF009749F02D
S1131B60DC01ED91FC910190F081E02D0995E801F3
S1131B70F3CF0C80DD81C02D209771F7F89410927B
S1131B80EF02DF91CF911F910F910895BC0187EF70
S1131B9092E0B0CF089560E070E087EF92E09BDFC1
S1131BA067EF72E080EF92E096CF089597FB072EDF
S1131BB016F4009406D077FD08D015D007FC05D0A4
S1131BC03EF4909581959F4F0895709561957F4F50
S1131BD00895EE0FFF1F0590F491E02D09940790EE
S1131BE0F691E02D0994AA1BBB1B51E107C0AA1F63
S1131BF0BB1FA617B70710F0A61BB70B881F991FAA
S1131C005A95A9F780959095BC01CD010895F89453
S1051C10FFCF00
S1131C120000FE022000080000000000470500004A
S1131C220000BA00CA00FAFF000030010000000000
S1131C3232010000000024020000000082040000BF
S1131C420000480500000000A6077607FAFF00001E
S1131C525B0900000000FC07000000000C0A000001
S1131C620000550B00000000FD0B182335344725F6
S1131C72664559265734885877566B27383499273E
S1131C826645AA6AAA37999988677B2839347A25DE
S1131C926645BB2B793488587756CC7CCC38CC7CBF
S1131CA29945BBBBBB7BAAAA99788F293A344B25A9
S1131CB26645CC29573488587756DD2D8D34BB2997
S1131CC26645AA6AAA3799998867EE8EEE39EE8E2E
S1131CD2AA45EE8EEE39BB8B7756DDDDDD8DDDDD7B
S10D1CE2DD49CCCCCCCCBBBBAA89F5
S9030000FC
